{
  "contractName": "Consumer",
  "abi": [
    {
      "inputs": [
        {
          "internalType": "address",
          "name": "_oracle",
          "type": "address"
        }
      ],
      "stateMutability": "nonpayable",
      "type": "constructor"
    },
    {
      "inputs": [],
      "name": "oracle",
      "outputs": [
        {
          "internalType": "contract IOracle",
          "name": "",
          "type": "address"
        }
      ],
      "stateMutability": "view",
      "type": "function",
      "constant": true
    },
    {
      "inputs": [],
      "name": "foo",
      "outputs": [],
      "stateMutability": "nonpayable",
      "type": "function"
    }
  ],
  "bytecode": "0x608060405234801561001057600080fd5b50604051610684380380610684833981810160405281019061003291906100db565b806000806101000a81548173ffffffffffffffffffffffffffffffffffffffff021916908373ffffffffffffffffffffffffffffffffffffffff16021790555050610108565b600080fd5b600073ffffffffffffffffffffffffffffffffffffffff82169050919050565b60006100a88261007d565b9050919050565b6100b88161009d565b81146100c357600080fd5b50565b6000815190506100d5816100af565b92915050565b6000602082840312156100f1576100f0610078565b5b60006100ff848285016100c6565b91505092915050565b61056d806101176000396000f3fe608060405234801561001057600080fd5b50600436106100365760003560e01c80637dc0d1d01461003b578063c298557814610059575b600080fd5b610043610063565b604051610050919061026a565b60405180910390f35b610061610087565b005b60008054906101000a900473ffffffffffffffffffffffffffffffffffffffff1681565b6000604051602001610098906102dc565b60405160208183030381529060405280519060200120905060008060008060009054906101000a900473ffffffffffffffffffffffffffffffffffffffff1673ffffffffffffffffffffffffffffffffffffffff166354f6127f856040518263ffffffff1660e01b815260040161010f919061030a565b606060405180830381865afa15801561012c573d6000803e3d6000fd5b505050506040513d601f19601f820116820180604052508101906101509190610398565b92509250925082610196576040517f08c379a000000000000000000000000000000000000000000000000000000000815260040161018d90610448565b60405180910390fd5b6078426101a39190610497565b8210156101e5576040517f08c379a00000000000000000000000000000000000000000000000000000000081526004016101dc90610517565b60405180910390fd5b50505050565b600073ffffffffffffffffffffffffffffffffffffffff82169050919050565b6000819050919050565b600061023061022b610226846101eb565b61020b565b6101eb565b9050919050565b600061024282610215565b9050919050565b600061025482610237565b9050919050565b61026481610249565b82525050565b600060208201905061027f600083018461025b565b92915050565b600081905092915050565b7f4254432f55534400000000000000000000000000000000000000000000000000600082015250565b60006102c6600783610285565b91506102d182610290565b600782019050919050565b60006102e7826102b9565b9150819050919050565b6000819050919050565b610304816102f1565b82525050565b600060208201905061031f60008301846102fb565b92915050565b600080fd5b60008115159050919050565b61033f8161032a565b811461034a57600080fd5b50565b60008151905061035c81610336565b92915050565b6000819050919050565b61037581610362565b811461038057600080fd5b50565b6000815190506103928161036c565b92915050565b6000806000606084860312156103b1576103b0610325565b5b60006103bf8682870161034d565b93505060206103d086828701610383565b92505060406103e186828701610383565b9150509250925092565b600082825260208201905092915050565b7f436f756c646e2774206765742074686520707269636573000000000000000000600082015250565b60006104326017836103eb565b915061043d826103fc565b602082019050919050565b6000602082019050818103600083015261046181610425565b9050919050565b7f4e487b7100000000000000000000000000000000000000000000000000000000600052601160045260246000fd5b60006104a282610362565b91506104ad83610362565b9250828210156104c0576104bf610468565b5b828203905092915050565b7f70726963657320746f6f206f6c64000000000000000000000000000000000000600082015250565b6000610501600e836103eb565b915061050c826104cb565b602082019050919050565b60006020820190508181036000830152610530816104f4565b905091905056fea264697066735822122021243359716bab06a02dbb399d5199667af8d40d27aee604f2cdeed665de750b64736f6c634300080f0033",
  "immutableReferences": {},
  "source": "//SPDX-License-Identifier: MIT\r\n\r\nimport \"./IOracle.sol\";\r\n\r\npragma solidity ^0.8.0;\r\n\r\ncontract Consumer {\r\n    IOracle public oracle;\r\n\r\n    constructor(address _oracle){\r\n        oracle = IOracle(_oracle);\r\n    }\r\n\r\n    function foo() external{\r\n        bytes32 key = keccak256(abi.encodePacked(\"BTC/USD\"));\r\n\r\n        (bool result, uint timestamp, uint data) = oracle.getData(key);\r\n        require(result, \"Couldn't get the prices\");\r\n        require(timestamp >= block.timestamp - 2 minutes, 'prices too old');\r\n        //do somethingwith the price\r\n    }\r\n}",
  "sourcePath": "C:\\Users\\ojasm\\Documents\\Blockchain\\EatTheBlocks\\DAO\\contracts\\Consumer.sol",
  "compiler": {
    "name": "solc",
    "version": "0.8.15+commit.e14f2714.Emscripten.clang"
  },
  "schemaVersion": "3.4.3",
  "updatedAt": "2022-07-15T04:37:25.533Z",
  "networkType": "ethereum",
  "devdoc": {
    "kind": "dev",
    "methods": {},
    "version": 1
  },
  "userdoc": {
    "kind": "user",
    "methods": {},
    "version": 1
  }
}