{
  "contractName": "Oracle",
  "abi": [
    {
      "inputs": [
        {
          "internalType": "address",
          "name": "_admin",
          "type": "address"
        }
      ],
      "stateMutability": "nonpayable",
      "type": "constructor"
    },
    {
      "inputs": [],
      "name": "admin",
      "outputs": [
        {
          "internalType": "address",
          "name": "",
          "type": "address"
        }
      ],
      "stateMutability": "view",
      "type": "function",
      "constant": true
    },
    {
      "inputs": [
        {
          "internalType": "bytes32",
          "name": "",
          "type": "bytes32"
        }
      ],
      "name": "data",
      "outputs": [
        {
          "internalType": "uint256",
          "name": "date",
          "type": "uint256"
        },
        {
          "internalType": "uint256",
          "name": "payload",
          "type": "uint256"
        }
      ],
      "stateMutability": "view",
      "type": "function",
      "constant": true
    },
    {
      "inputs": [
        {
          "internalType": "address",
          "name": "",
          "type": "address"
        }
      ],
      "name": "reporters",
      "outputs": [
        {
          "internalType": "bool",
          "name": "",
          "type": "bool"
        }
      ],
      "stateMutability": "view",
      "type": "function",
      "constant": true
    },
    {
      "inputs": [
        {
          "internalType": "address",
          "name": "reporter",
          "type": "address"
        },
        {
          "internalType": "bool",
          "name": "isReporter",
          "type": "bool"
        }
      ],
      "name": "updateReporter",
      "outputs": [],
      "stateMutability": "nonpayable",
      "type": "function"
    },
    {
      "inputs": [
        {
          "internalType": "bytes32",
          "name": "key",
          "type": "bytes32"
        },
        {
          "internalType": "uint256",
          "name": "payload",
          "type": "uint256"
        }
      ],
      "name": "updateData",
      "outputs": [],
      "stateMutability": "nonpayable",
      "type": "function"
    },
    {
      "inputs": [
        {
          "internalType": "bytes32",
          "name": "key",
          "type": "bytes32"
        }
      ],
      "name": "getData",
      "outputs": [
        {
          "internalType": "bool",
          "name": "result",
          "type": "bool"
        },
        {
          "internalType": "uint256",
          "name": "date",
          "type": "uint256"
        },
        {
          "internalType": "uint256",
          "name": "payload",
          "type": "uint256"
        }
      ],
      "stateMutability": "view",
      "type": "function",
      "constant": true
    }
  ],
  "bytecode": "0x608060405234801561001057600080fd5b506040516108ba3803806108ba833981810160405281019061003291906100db565b806000806101000a81548173ffffffffffffffffffffffffffffffffffffffff021916908373ffffffffffffffffffffffffffffffffffffffff16021790555050610108565b600080fd5b600073ffffffffffffffffffffffffffffffffffffffff82169050919050565b60006100a88261007d565b9050919050565b6100b88161009d565b81146100c357600080fd5b50565b6000815190506100d5816100af565b92915050565b6000602082840312156100f1576100f0610078565b5b60006100ff848285016100c6565b91505092915050565b6107a3806101176000396000f3fe608060405234801561001057600080fd5b50600436106100625760003560e01c80630147fb0c146100675780631ec6e24f146100985780632cc1cd9e146100b457806354f6127f146100e4578063a8200ab714610116578063f851a44014610132575b600080fd5b610081600480360381019061007c919061041b565b610150565b60405161008f929190610461565b60405180910390f35b6100b260048036038101906100ad9190610520565b610174565b005b6100ce60048036038101906100c99190610560565b61025d565b6040516100db919061059c565b60405180910390f35b6100fe60048036038101906100f9919061041b565b61027d565b60405161010d939291906105b7565b60405180910390f35b610130600480360381019061012b919061061a565b6102ed565b005b61013a6103bc565b6040516101479190610669565b60405180910390f35b60026020528060005260406000206000915090508060000154908060010154905082565b60008054906101000a900473ffffffffffffffffffffffffffffffffffffffff1673ffffffffffffffffffffffffffffffffffffffff163373ffffffffffffffffffffffffffffffffffffffff1614610202576040517f08c379a00000000000000000000000000000000000000000000000000000000081526004016101f9906106e1565b60405180910390fd5b80600160008473ffffffffffffffffffffffffffffffffffffffff1673ffffffffffffffffffffffffffffffffffffffff16815260200190815260200160002060006101000a81548160ff0219169083151502179055505050565b60016020528060005260406000206000915054906101000a900460ff1681565b6000806000806002600086815260200190815260200160002060000154036102af5760008060009250925092506102e6565b6001600260008681526020019081526020016000206000015460026000878152602001908152602001600020600101549250925092505b9193909250565b600160003373ffffffffffffffffffffffffffffffffffffffff1673ffffffffffffffffffffffffffffffffffffffff16815260200190815260200160002060009054906101000a900460ff16610379576040517f08c379a00000000000000000000000000000000000000000000000000000000081526004016103709061074d565b60405180910390fd5b6040518060400160405280428152602001828152506002600084815260200190815260200160002060008201518160000155602082015181600101559050505050565b60008054906101000a900473ffffffffffffffffffffffffffffffffffffffff1681565b600080fd5b6000819050919050565b6103f8816103e5565b811461040357600080fd5b50565b600081359050610415816103ef565b92915050565b600060208284031215610431576104306103e0565b5b600061043f84828501610406565b91505092915050565b6000819050919050565b61045b81610448565b82525050565b60006040820190506104766000830185610452565b6104836020830184610452565b9392505050565b600073ffffffffffffffffffffffffffffffffffffffff82169050919050565b60006104b58261048a565b9050919050565b6104c5816104aa565b81146104d057600080fd5b50565b6000813590506104e2816104bc565b92915050565b60008115159050919050565b6104fd816104e8565b811461050857600080fd5b50565b60008135905061051a816104f4565b92915050565b60008060408385031215610537576105366103e0565b5b6000610545858286016104d3565b92505060206105568582860161050b565b9150509250929050565b600060208284031215610576576105756103e0565b5b6000610584848285016104d3565b91505092915050565b610596816104e8565b82525050565b60006020820190506105b1600083018461058d565b92915050565b60006060820190506105cc600083018661058d565b6105d96020830185610452565b6105e66040830184610452565b949350505050565b6105f781610448565b811461060257600080fd5b50565b600081359050610614816105ee565b92915050565b60008060408385031215610631576106306103e0565b5b600061063f85828601610406565b925050602061065085828601610605565b9150509250929050565b610663816104aa565b82525050565b600060208201905061067e600083018461065a565b92915050565b600082825260208201905092915050565b7f4f6e6c792061646d696e2063616e20757064617465205265706f727465720000600082015250565b60006106cb601e83610684565b91506106d682610695565b602082019050919050565b600060208201905081810360008301526106fa816106be565b9050919050565b7f4f6e6c79207265706f727465722063616e207570646174652064617461000000600082015250565b6000610737601d83610684565b915061074282610701565b602082019050919050565b600060208201905081810360008301526107668161072a565b905091905056fea264697066735822122098c66b8f4b2494c30d06dd5d6f22a8579bed9d6e535782073de64be4cd71bfa464736f6c634300080f0033",
  "immutableReferences": {},
  "source": "//SPDX-License-Identifier: MIT\r\npragma solidity ^0.8.0;\r\n\r\ncontract Oracle {\r\n    struct Data {\r\n        uint256 date;\r\n        uint256 payload;\r\n    }\r\n\r\n    address public admin;\r\n    mapping(address => bool) public reporters;\r\n    mapping(bytes32 => Data) public data;\r\n\r\n    constructor(address _admin) {\r\n        admin = _admin;\r\n    }\r\n\r\n    function updateReporter(address reporter, bool isReporter) external {\r\n        require(msg.sender == admin, \"Only admin can update Reporter\");\r\n        reporters[reporter] = isReporter;\r\n    }\r\n\r\n    function updateData(bytes32 key, uint256 payload) external {\r\n        require(reporters[msg.sender], \"Only reporter can update data\");\r\n        data[key] = Data(block.timestamp, payload);\r\n    }\r\n\r\n    function getData(bytes32 key)\r\n        external\r\n        view\r\n        returns (\r\n            bool result,\r\n            uint256 date,\r\n            uint256 payload\r\n        )\r\n    {\r\n        if (data[key].date == 0) {\r\n            return (false, 0, 0);\r\n        } else {\r\n            return (true, data[key].date, data[key].payload);\r\n        }\r\n    }\r\n}\r\n",
  "sourcePath": "C:\\Users\\ojasm\\Documents\\Blockchain\\EatTheBlocks\\DAO\\contracts\\Oracle.sol",
  "compiler": {
    "name": "solc",
    "version": "0.8.15+commit.e14f2714.Emscripten.clang"
  },
  "schemaVersion": "3.4.3",
  "updatedAt": "2022-07-15T04:37:25.523Z",
  "networkType": "ethereum",
  "devdoc": {
    "kind": "dev",
    "methods": {},
    "version": 1
  },
  "userdoc": {
    "kind": "user",
    "methods": {},
    "version": 1
  }
}